{
  "address": "0xEEc321a1Ef092AC9EbD30a5918F8Af195219EB5F",
  "abi": [
    {
      "inputs": [
        {
          "internalType": "address",
          "name": "vrfCoordinatorV2",
          "type": "address"
        },
        {
          "internalType": "uint64",
          "name": "subcriptionId",
          "type": "uint64"
        },
        {
          "internalType": "bytes32",
          "name": "gasLane",
          "type": "bytes32"
        },
        {
          "internalType": "uint32",
          "name": "callbackGasLimit",
          "type": "uint32"
        },
        {
          "internalType": "string[3]",
          "name": "dogTokenUris",
          "type": "string[3]"
        },
        {
          "internalType": "uint256",
          "name": "mintFee",
          "type": "uint256"
        }
      ],
      "stateMutability": "nonpayable",
      "type": "constructor"
    },
    {
      "inputs": [
        {
          "internalType": "address",
          "name": "have",
          "type": "address"
        },
        {
          "internalType": "address",
          "name": "want",
          "type": "address"
        }
      ],
      "name": "OnlyCoordinatorCanFulfill",
      "type": "error"
    },
    {
      "inputs": [],
      "name": "RandomIpfsNft__NeedMoreEthSent",
      "type": "error"
    },
    {
      "inputs": [],
      "name": "RandomIpfsNft__RangeOutOfBounds",
      "type": "error"
    },
    {
      "inputs": [],
      "name": "RandomIpfsNft__TransferFailed",
      "type": "error"
    },
    {
      "anonymous": false,
      "inputs": [
        {
          "indexed": true,
          "internalType": "address",
          "name": "owner",
          "type": "address"
        },
        {
          "indexed": true,
          "internalType": "address",
          "name": "approved",
          "type": "address"
        },
        {
          "indexed": true,
          "internalType": "uint256",
          "name": "tokenId",
          "type": "uint256"
        }
      ],
      "name": "Approval",
      "type": "event"
    },
    {
      "anonymous": false,
      "inputs": [
        {
          "indexed": true,
          "internalType": "address",
          "name": "owner",
          "type": "address"
        },
        {
          "indexed": true,
          "internalType": "address",
          "name": "operator",
          "type": "address"
        },
        {
          "indexed": false,
          "internalType": "bool",
          "name": "approved",
          "type": "bool"
        }
      ],
      "name": "ApprovalForAll",
      "type": "event"
    },
    {
      "anonymous": false,
      "inputs": [
        {
          "indexed": false,
          "internalType": "enum RandomIpfsNft.Breed",
          "name": "dogBree",
          "type": "uint8"
        },
        {
          "indexed": false,
          "internalType": "address",
          "name": "minter",
          "type": "address"
        }
      ],
      "name": "NftMinted",
      "type": "event"
    },
    {
      "anonymous": false,
      "inputs": [
        {
          "indexed": true,
          "internalType": "uint256",
          "name": "requestId",
          "type": "uint256"
        },
        {
          "indexed": false,
          "internalType": "address",
          "name": "requester",
          "type": "address"
        }
      ],
      "name": "NftRequested",
      "type": "event"
    },
    {
      "anonymous": false,
      "inputs": [
        {
          "indexed": true,
          "internalType": "address",
          "name": "previousOwner",
          "type": "address"
        },
        {
          "indexed": true,
          "internalType": "address",
          "name": "newOwner",
          "type": "address"
        }
      ],
      "name": "OwnershipTransferred",
      "type": "event"
    },
    {
      "anonymous": false,
      "inputs": [
        {
          "indexed": true,
          "internalType": "address",
          "name": "from",
          "type": "address"
        },
        {
          "indexed": true,
          "internalType": "address",
          "name": "to",
          "type": "address"
        },
        {
          "indexed": true,
          "internalType": "uint256",
          "name": "tokenId",
          "type": "uint256"
        }
      ],
      "name": "Transfer",
      "type": "event"
    },
    {
      "inputs": [
        {
          "internalType": "address",
          "name": "to",
          "type": "address"
        },
        {
          "internalType": "uint256",
          "name": "tokenId",
          "type": "uint256"
        }
      ],
      "name": "approve",
      "outputs": [],
      "stateMutability": "nonpayable",
      "type": "function"
    },
    {
      "inputs": [
        {
          "internalType": "address",
          "name": "owner",
          "type": "address"
        }
      ],
      "name": "balanceOf",
      "outputs": [
        {
          "internalType": "uint256",
          "name": "",
          "type": "uint256"
        }
      ],
      "stateMutability": "view",
      "type": "function"
    },
    {
      "inputs": [
        {
          "internalType": "uint256",
          "name": "tokenId",
          "type": "uint256"
        }
      ],
      "name": "getApproved",
      "outputs": [
        {
          "internalType": "address",
          "name": "",
          "type": "address"
        }
      ],
      "stateMutability": "view",
      "type": "function"
    },
    {
      "inputs": [
        {
          "internalType": "uint256",
          "name": "moddedRng",
          "type": "uint256"
        }
      ],
      "name": "getBreedFromModdedRng",
      "outputs": [
        {
          "internalType": "enum RandomIpfsNft.Breed",
          "name": "",
          "type": "uint8"
        }
      ],
      "stateMutability": "pure",
      "type": "function"
    },
    {
      "inputs": [],
      "name": "getChanceArray",
      "outputs": [
        {
          "internalType": "uint256[3]",
          "name": "",
          "type": "uint256[3]"
        }
      ],
      "stateMutability": "pure",
      "type": "function"
    },
    {
      "inputs": [
        {
          "internalType": "uint256",
          "name": "index",
          "type": "uint256"
        }
      ],
      "name": "getDogTokenUri",
      "outputs": [
        {
          "internalType": "string",
          "name": "",
          "type": "string"
        }
      ],
      "stateMutability": "view",
      "type": "function"
    },
    {
      "inputs": [],
      "name": "getMintFee",
      "outputs": [
        {
          "internalType": "uint256",
          "name": "",
          "type": "uint256"
        }
      ],
      "stateMutability": "view",
      "type": "function"
    },
    {
      "inputs": [],
      "name": "getTokenCounter",
      "outputs": [
        {
          "internalType": "uint256",
          "name": "",
          "type": "uint256"
        }
      ],
      "stateMutability": "view",
      "type": "function"
    },
    {
      "inputs": [
        {
          "internalType": "address",
          "name": "owner",
          "type": "address"
        },
        {
          "internalType": "address",
          "name": "operator",
          "type": "address"
        }
      ],
      "name": "isApprovedForAll",
      "outputs": [
        {
          "internalType": "bool",
          "name": "",
          "type": "bool"
        }
      ],
      "stateMutability": "view",
      "type": "function"
    },
    {
      "inputs": [],
      "name": "name",
      "outputs": [
        {
          "internalType": "string",
          "name": "",
          "type": "string"
        }
      ],
      "stateMutability": "view",
      "type": "function"
    },
    {
      "inputs": [],
      "name": "owner",
      "outputs": [
        {
          "internalType": "address",
          "name": "",
          "type": "address"
        }
      ],
      "stateMutability": "view",
      "type": "function"
    },
    {
      "inputs": [
        {
          "internalType": "uint256",
          "name": "tokenId",
          "type": "uint256"
        }
      ],
      "name": "ownerOf",
      "outputs": [
        {
          "internalType": "address",
          "name": "",
          "type": "address"
        }
      ],
      "stateMutability": "view",
      "type": "function"
    },
    {
      "inputs": [
        {
          "internalType": "uint256",
          "name": "requestId",
          "type": "uint256"
        },
        {
          "internalType": "uint256[]",
          "name": "randomWords",
          "type": "uint256[]"
        }
      ],
      "name": "rawFulfillRandomWords",
      "outputs": [],
      "stateMutability": "nonpayable",
      "type": "function"
    },
    {
      "inputs": [],
      "name": "renounceOwnership",
      "outputs": [],
      "stateMutability": "nonpayable",
      "type": "function"
    },
    {
      "inputs": [],
      "name": "requestNft",
      "outputs": [
        {
          "internalType": "uint256",
          "name": "requestId",
          "type": "uint256"
        }
      ],
      "stateMutability": "payable",
      "type": "function"
    },
    {
      "inputs": [
        {
          "internalType": "uint256",
          "name": "",
          "type": "uint256"
        }
      ],
      "name": "s_requestIdToSender",
      "outputs": [
        {
          "internalType": "address",
          "name": "",
          "type": "address"
        }
      ],
      "stateMutability": "view",
      "type": "function"
    },
    {
      "inputs": [],
      "name": "s_tokenCounter",
      "outputs": [
        {
          "internalType": "uint256",
          "name": "",
          "type": "uint256"
        }
      ],
      "stateMutability": "view",
      "type": "function"
    },
    {
      "inputs": [
        {
          "internalType": "address",
          "name": "from",
          "type": "address"
        },
        {
          "internalType": "address",
          "name": "to",
          "type": "address"
        },
        {
          "internalType": "uint256",
          "name": "tokenId",
          "type": "uint256"
        }
      ],
      "name": "safeTransferFrom",
      "outputs": [],
      "stateMutability": "nonpayable",
      "type": "function"
    },
    {
      "inputs": [
        {
          "internalType": "address",
          "name": "from",
          "type": "address"
        },
        {
          "internalType": "address",
          "name": "to",
          "type": "address"
        },
        {
          "internalType": "uint256",
          "name": "tokenId",
          "type": "uint256"
        },
        {
          "internalType": "bytes",
          "name": "data",
          "type": "bytes"
        }
      ],
      "name": "safeTransferFrom",
      "outputs": [],
      "stateMutability": "nonpayable",
      "type": "function"
    },
    {
      "inputs": [
        {
          "internalType": "address",
          "name": "operator",
          "type": "address"
        },
        {
          "internalType": "bool",
          "name": "approved",
          "type": "bool"
        }
      ],
      "name": "setApprovalForAll",
      "outputs": [],
      "stateMutability": "nonpayable",
      "type": "function"
    },
    {
      "inputs": [
        {
          "internalType": "bytes4",
          "name": "interfaceId",
          "type": "bytes4"
        }
      ],
      "name": "supportsInterface",
      "outputs": [
        {
          "internalType": "bool",
          "name": "",
          "type": "bool"
        }
      ],
      "stateMutability": "view",
      "type": "function"
    },
    {
      "inputs": [],
      "name": "symbol",
      "outputs": [
        {
          "internalType": "string",
          "name": "",
          "type": "string"
        }
      ],
      "stateMutability": "view",
      "type": "function"
    },
    {
      "inputs": [
        {
          "internalType": "uint256",
          "name": "tokenId",
          "type": "uint256"
        }
      ],
      "name": "tokenURI",
      "outputs": [
        {
          "internalType": "string",
          "name": "",
          "type": "string"
        }
      ],
      "stateMutability": "view",
      "type": "function"
    },
    {
      "inputs": [
        {
          "internalType": "address",
          "name": "from",
          "type": "address"
        },
        {
          "internalType": "address",
          "name": "to",
          "type": "address"
        },
        {
          "internalType": "uint256",
          "name": "tokenId",
          "type": "uint256"
        }
      ],
      "name": "transferFrom",
      "outputs": [],
      "stateMutability": "nonpayable",
      "type": "function"
    },
    {
      "inputs": [
        {
          "internalType": "address",
          "name": "newOwner",
          "type": "address"
        }
      ],
      "name": "transferOwnership",
      "outputs": [],
      "stateMutability": "nonpayable",
      "type": "function"
    },
    {
      "inputs": [],
      "name": "withdraw",
      "outputs": [],
      "stateMutability": "nonpayable",
      "type": "function"
    }
  ],
  "transactionHash": "0x056de92383b2769a2e4a14f18f8fec98b5d79c3d2e448f90f54b0cd0afc54ee4",
  "args": [
    "0x6168499c0cFfCaCD319c818142124B7A15E857ab",
    "2581",
    "0xd89b2bf150e3b9e13446986e571fb9cab24b13cea0a43ea20a6049a85cc807cc",
    "500000",
    [
      "ipfs://QmaVkBn2tKmjbhphU7eyztbvSQU5EXDdqRyXZtRhSGgJGo",
      "ipfs://QmYQC5aGZu2PTH8XzbJrbDnvhj3gVs7ya33H9mqUNvST3d",
      "ipfs://QmZYmH5iDbD6v3U2ixoVAjioSzvWJszDzYdbeCLquGSpVm"
    ],
    "10000000000000000"
  ],
  "numDeployments": 1,
  "solcInputHash": "82e76002b19d83eed02a0ae38d71f4df",
  "bytecode": "0x6101406040523480156200001257600080fd5b50604051620042ee380380620042ee83398181016040528101906200003891906200080b565b6040518060400160405280600f81526020017f52616e646f6d2049706673204e667400000000000000000000000000000000008152506040518060400160405280600581526020017f52494e4654000000000000000000000000000000000000000000000000000000815250878073ffffffffffffffffffffffffffffffffffffffff1660808173ffffffffffffffffffffffffffffffffffffffff1660601b81525050508160009080519060200190620000f59291906200029e565b5080600190805190602001906200010e9291906200029e565b5050506200013162000125620001d060201b60201c565b620001d860201b60201c565b8573ffffffffffffffffffffffffffffffffffffffff1660a08173ffffffffffffffffffffffffffffffffffffffff1660601b815250508467ffffffffffffffff1660c08167ffffffffffffffff1660c01b815250508360e081815250508263ffffffff166101008163ffffffff1660e01b8152505081600a906003620001ba9291906200032f565b508061012081815250505050505050506200092b565b600033905090565b6000600760009054906101000a900473ffffffffffffffffffffffffffffffffffffffff16905081600760006101000a81548173ffffffffffffffffffffffffffffffffffffffff021916908373ffffffffffffffffffffffffffffffffffffffff1602179055508173ffffffffffffffffffffffffffffffffffffffff168173ffffffffffffffffffffffffffffffffffffffff167f8be0079c531659141344cd1fd0a4f28419497f9722a3daafe3b4186f6b6457e060405160405180910390a35050565b828054620002ac90620008f5565b90600052602060002090601f016020900481019282620002d057600085556200031c565b82601f10620002eb57805160ff19168380011785556200031c565b828001600101855582156200031c579182015b828111156200031b578251825591602001919060010190620002fe565b5b5090506200032b919062000396565b5090565b82805482825590600052602060002090810192821562000383579160200282015b8281111562000382578251829080519060200190620003719291906200029e565b509160200191906001019062000350565b5b509050620003929190620003b5565b5090565b5b80821115620003b157600081600090555060010162000397565b5090565b5b80821115620003d95760008181620003cf9190620003dd565b50600101620003b6565b5090565b508054620003eb90620008f5565b6000825580601f10620003ff575062000420565b601f0160209004906000526020600020908101906200041f919062000396565b5b50565b6000604051905090565b600080fd5b600080fd5b600073ffffffffffffffffffffffffffffffffffffffff82169050919050565b6000620004648262000437565b9050919050565b620004768162000457565b81146200048257600080fd5b50565b60008151905062000496816200046b565b92915050565b600067ffffffffffffffff82169050919050565b620004bb816200049c565b8114620004c757600080fd5b50565b600081519050620004db81620004b0565b92915050565b6000819050919050565b620004f681620004e1565b81146200050257600080fd5b50565b6000815190506200051681620004eb565b92915050565b600063ffffffff82169050919050565b62000537816200051c565b81146200054357600080fd5b50565b60008151905062000557816200052c565b92915050565b600080fd5b6000601f19601f8301169050919050565b7f4e487b7100000000000000000000000000000000000000000000000000000000600052604160045260246000fd5b620005ad8262000562565b810181811067ffffffffffffffff82111715620005cf57620005ce62000573565b5b80604052505050565b6000620005e462000423565b9050620005f28282620005a2565b919050565b600067ffffffffffffffff82111562000615576200061462000573565b5b602082029050919050565b600080fd5b600080fd5b600067ffffffffffffffff82111562000648576200064762000573565b5b620006538262000562565b9050602081019050919050565b60005b838110156200068057808201518184015260208101905062000663565b8381111562000690576000848401525b50505050565b6000620006ad620006a7846200062a565b620005d8565b905082815260208101848484011115620006cc57620006cb62000625565b5b620006d984828562000660565b509392505050565b600082601f830112620006f957620006f86200055d565b5b81516200070b84826020860162000696565b91505092915050565b60006200072b6200072584620005f7565b620005d8565b9050806020840283018581111562000748576200074762000620565b5b835b818110156200079657805167ffffffffffffffff8111156200077157620007706200055d565b5b808601620007808982620006e1565b855260208501945050506020810190506200074a565b5050509392505050565b600082601f830112620007b857620007b76200055d565b5b6003620007c784828562000714565b91505092915050565b6000819050919050565b620007e581620007d0565b8114620007f157600080fd5b50565b6000815190506200080581620007da565b92915050565b60008060008060008060c087890312156200082b576200082a6200042d565b5b60006200083b89828a0162000485565b96505060206200084e89828a01620004ca565b95505060406200086189828a0162000505565b94505060606200087489828a0162000546565b935050608087015167ffffffffffffffff81111562000898576200089762000432565b5b620008a689828a01620007a0565b92505060a0620008b989828a01620007f4565b9150509295509295509295565b7f4e487b7100000000000000000000000000000000000000000000000000000000600052602260045260246000fd5b600060028204905060018216806200090e57607f821691505b60208210811415620009255762000924620008c6565b5b50919050565b60805160601c60a05160601c60c05160c01c60e0516101005160e01c610120516139596200099560003960008181610d760152610f570152600061103101526000610fed0152600061100e01526000610fb101526000818161091d015261097101526139596000f3fe6080604052600436106101815760003560e01c8063715018a6116100d1578063a36f573b1161008a578063b88d4fde11610064578063b88d4fde14610577578063c87b56dd146105a0578063e985e9c5146105dd578063f2fde38b1461061a57610181565b8063a36f573b146104df578063a51cccf31461051c578063aa1524911461055957610181565b8063715018a6146103e1578063741a63fa146103f85780637a5caab3146104355780638da5cb5b1461046057806395d89b411461048b578063a22cb465146104b657610181565b806323b872dd1161013e5780635dacf5f4116101185780635dacf5f4146103115780636352211e1461033c5780636e02007d1461037957806370a08231146103a457610181565b806323b872dd146102a85780633ccfd60b146102d157806342842e0e146102e857610181565b806301ffc9a71461018657806306fdde03146101c3578063081812fc146101ee578063095ea7b31461022b5780630b21a83b146102545780631fe543e31461027f575b600080fd5b34801561019257600080fd5b506101ad60048036038101906101a89190612507565b610643565b6040516101ba919061254f565b60405180910390f35b3480156101cf57600080fd5b506101d8610725565b6040516101e59190612603565b60405180910390f35b3480156101fa57600080fd5b506102156004803603810190610210919061265b565b6107b7565b60405161022291906126c9565b60405180910390f35b34801561023757600080fd5b50610252600480360381019061024d9190612710565b6107fd565b005b34801561026057600080fd5b50610269610915565b604051610276919061275f565b60405180910390f35b34801561028b57600080fd5b506102a660048036038101906102a191906128c2565b61091b565b005b3480156102b457600080fd5b506102cf60048036038101906102ca919061291e565b6109db565b005b3480156102dd57600080fd5b506102e6610a3b565b005b3480156102f457600080fd5b5061030f600480360381019061030a919061291e565b610aef565b005b34801561031d57600080fd5b50610326610b0f565b6040516103339190612a1c565b60405180910390f35b34801561034857600080fd5b50610363600480360381019061035e919061265b565b610b3a565b60405161037091906126c9565b60405180910390f35b34801561038557600080fd5b5061038e610bec565b60405161039b919061275f565b60405180910390f35b3480156103b057600080fd5b506103cb60048036038101906103c69190612a37565b610bf6565b6040516103d8919061275f565b60405180910390f35b3480156103ed57600080fd5b506103f6610cae565b005b34801561040457600080fd5b5061041f600480360381019061041a919061265b565b610cc2565b60405161042c9190612603565b60405180910390f35b34801561044157600080fd5b5061044a610d72565b604051610457919061275f565b60405180910390f35b34801561046c57600080fd5b50610475610d9a565b60405161048291906126c9565b60405180910390f35b34801561049757600080fd5b506104a0610dc4565b6040516104ad9190612603565b60405180910390f35b3480156104c257600080fd5b506104dd60048036038101906104d89190612a90565b610e56565b005b3480156104eb57600080fd5b506105066004803603810190610501919061265b565b610e6c565b60405161051391906126c9565b60405180910390f35b34801561052857600080fd5b50610543600480360381019061053e919061265b565b610e9f565b6040516105509190612b47565b60405180910390f35b610561610f53565b60405161056e919061275f565b60405180910390f35b34801561058357600080fd5b5061059e60048036038101906105999190612c17565b611153565b005b3480156105ac57600080fd5b506105c760048036038101906105c2919061265b565b6111b5565b6040516105d49190612603565b60405180910390f35b3480156105e957600080fd5b5061060460048036038101906105ff9190612c9a565b6112c8565b604051610611919061254f565b60405180910390f35b34801561062657600080fd5b50610641600480360381019061063c9190612a37565b61135c565b005b60007f80ac58cd000000000000000000000000000000000000000000000000000000007bffffffffffffffffffffffffffffffffffffffffffffffffffffffff1916827bffffffffffffffffffffffffffffffffffffffffffffffffffffffff1916148061070e57507f5b5e139f000000000000000000000000000000000000000000000000000000007bffffffffffffffffffffffffffffffffffffffffffffffffffffffff1916827bffffffffffffffffffffffffffffffffffffffffffffffffffffffff1916145b8061071e575061071d826113e0565b5b9050919050565b60606000805461073490612d09565b80601f016020809104026020016040519081016040528092919081815260200182805461076090612d09565b80156107ad5780601f10610782576101008083540402835291602001916107ad565b820191906000526020600020905b81548152906001019060200180831161079057829003601f168201915b5050505050905090565b60006107c28261144a565b6004600083815260200190815260200160002060009054906101000a900473ffffffffffffffffffffffffffffffffffffffff169050919050565b600061080882610b3a565b90508073ffffffffffffffffffffffffffffffffffffffff168373ffffffffffffffffffffffffffffffffffffffff161415610879576040517f08c379a000000000000000000000000000000000000000000000000000000000815260040161087090612dad565b60405180910390fd5b8073ffffffffffffffffffffffffffffffffffffffff16610898611495565b73ffffffffffffffffffffffffffffffffffffffff1614806108c757506108c6816108c1611495565b6112c8565b5b610906576040517f08c379a00000000000000000000000000000000000000000000000000000000081526004016108fd90612e3f565b60405180910390fd5b610910838361149d565b505050565b60095481565b7f000000000000000000000000000000000000000000000000000000000000000073ffffffffffffffffffffffffffffffffffffffff163373ffffffffffffffffffffffffffffffffffffffff16146109cd57337f00000000000000000000000000000000000000000000000000000000000000006040517f1cf993f40000000000000000000000000000000000000000000000000000000081526004016109c4929190612e5f565b60405180910390fd5b6109d78282611556565b5050565b6109ec6109e6611495565b826116f6565b610a2b576040517f08c379a0000000000000000000000000000000000000000000000000000000008152600401610a2290612efa565b60405180910390fd5b610a3683838361178b565b505050565b610a436119f2565b600047905060003373ffffffffffffffffffffffffffffffffffffffff1682604051610a6e90612f4b565b60006040518083038185875af1925050503d8060008114610aab576040519150601f19603f3d011682016040523d82523d6000602084013e610ab0565b606091505b5050905080610aeb576040517fca7e25b700000000000000000000000000000000000000000000000000000000815260040160405180910390fd5b5050565b610b0a83838360405180602001604052806000815250611153565b505050565b610b176123d6565b6040518060600160405280600a8152602001601e81526020016064815250905090565b6000806002600084815260200190815260200160002060009054906101000a900473ffffffffffffffffffffffffffffffffffffffff169050600073ffffffffffffffffffffffffffffffffffffffff168173ffffffffffffffffffffffffffffffffffffffff161415610be3576040517f08c379a0000000000000000000000000000000000000000000000000000000008152600401610bda90612fac565b60405180910390fd5b80915050919050565b6000600954905090565b60008073ffffffffffffffffffffffffffffffffffffffff168273ffffffffffffffffffffffffffffffffffffffff161415610c67576040517f08c379a0000000000000000000000000000000000000000000000000000000008152600401610c5e9061303e565b60405180910390fd5b600360008373ffffffffffffffffffffffffffffffffffffffff1673ffffffffffffffffffffffffffffffffffffffff168152602001908152602001600020549050919050565b610cb66119f2565b610cc06000611a70565b565b6060600a8281548110610cd857610cd761305e565b5b906000526020600020018054610ced90612d09565b80601f0160208091040260200160405190810160405280929190818152602001828054610d1990612d09565b8015610d665780601f10610d3b57610100808354040283529160200191610d66565b820191906000526020600020905b815481529060010190602001808311610d4957829003601f168201915b50505050509050919050565b60007f0000000000000000000000000000000000000000000000000000000000000000905090565b6000600760009054906101000a900473ffffffffffffffffffffffffffffffffffffffff16905090565b606060018054610dd390612d09565b80601f0160208091040260200160405190810160405280929190818152602001828054610dff90612d09565b8015610e4c5780601f10610e2157610100808354040283529160200191610e4c565b820191906000526020600020905b815481529060010190602001808311610e2f57829003601f168201915b5050505050905090565b610e68610e61611495565b8383611b36565b5050565b60086020528060005260406000206000915054906101000a900473ffffffffffffffffffffffffffffffffffffffff1681565b600080600090506000610eb0610b0f565b905060005b6003811015610f1b57818160038110610ed157610ed061305e565b5b602002015183610ee191906130bc565b925082851015610f0857806002811115610efe57610efd612ad0565b5b9350505050610f4e565b8080610f1390613112565b915050610eb5565b506040517f12806c9d00000000000000000000000000000000000000000000000000000000815260040160405180910390fd5b919050565b60007f0000000000000000000000000000000000000000000000000000000000000000341015610faf576040517ff64fbfee00000000000000000000000000000000000000000000000000000000815260040160405180910390fd5b7f000000000000000000000000000000000000000000000000000000000000000073ffffffffffffffffffffffffffffffffffffffff16635d3b1d307f00000000000000000000000000000000000000000000000000000000000000007f000000000000000000000000000000000000000000000000000000000000000060037f000000000000000000000000000000000000000000000000000000000000000060016040518663ffffffff1660e01b81526004016110729594939291906131d3565b602060405180830381600087803b15801561108c57600080fd5b505af11580156110a0573d6000803e3d6000fd5b505050506040513d601f19601f820116820180604052508101906110c4919061323b565b9050336008600083815260200190815260200160002060006101000a81548173ffffffffffffffffffffffffffffffffffffffff021916908373ffffffffffffffffffffffffffffffffffffffff160217905550807ff873236e6cc0ecc5be1a9a35c95ee5b8d1ac4cc7bfef0cc5060391d6cc98e26b3360405161114891906126c9565b60405180910390a290565b61116461115e611495565b836116f6565b6111a3576040517f08c379a000000000000000000000000000000000000000000000000000000000815260040161119a90612efa565b60405180910390fd5b6111af84848484611ca3565b50505050565b60606111c08261144a565b60006006600084815260200190815260200160002080546111e090612d09565b80601f016020809104026020016040519081016040528092919081815260200182805461120c90612d09565b80156112595780601f1061122e57610100808354040283529160200191611259565b820191906000526020600020905b81548152906001019060200180831161123c57829003601f168201915b50505050509050600061126a611cff565b90506000815114156112805781925050506112c3565b6000825111156112b557808260405160200161129d9291906132a4565b604051602081830303815290604052925050506112c3565b6112be84611d16565b925050505b919050565b6000600560008473ffffffffffffffffffffffffffffffffffffffff1673ffffffffffffffffffffffffffffffffffffffff16815260200190815260200160002060008373ffffffffffffffffffffffffffffffffffffffff1673ffffffffffffffffffffffffffffffffffffffff16815260200190815260200160002060009054906101000a900460ff16905092915050565b6113646119f2565b600073ffffffffffffffffffffffffffffffffffffffff168173ffffffffffffffffffffffffffffffffffffffff1614156113d4576040517f08c379a00000000000000000000000000000000000000000000000000000000081526004016113cb9061333a565b60405180910390fd5b6113dd81611a70565b50565b60007f01ffc9a7000000000000000000000000000000000000000000000000000000007bffffffffffffffffffffffffffffffffffffffffffffffffffffffff1916827bffffffffffffffffffffffffffffffffffffffffffffffffffffffff1916149050919050565b61145381611d7e565b611492576040517f08c379a000000000000000000000000000000000000000000000000000000000815260040161148990612fac565b60405180910390fd5b50565b600033905090565b816004600083815260200190815260200160002060006101000a81548173ffffffffffffffffffffffffffffffffffffffff021916908373ffffffffffffffffffffffffffffffffffffffff160217905550808273ffffffffffffffffffffffffffffffffffffffff1661151083610b3a565b73ffffffffffffffffffffffffffffffffffffffff167f8c5be1e5ebec7d5bd14f71427d1e84f3dd0314c0f7b2291e5b200ac8c7c3b92560405160405180910390a45050565b60006008600084815260200190815260200160002060009054906101000a900473ffffffffffffffffffffffffffffffffffffffff1690506000600954905060006064846000815181106115ad576115ac61305e565b5b60200260200101516115bf9190613389565b905060006115cc82610e9f565b9050600954600960008282546115e291906130bc565b925050819055506115f38484611dea565b6116b583600a83600281111561160c5761160b612ad0565b5b8154811061161d5761161c61305e565b5b90600052602060002001805461163290612d09565b80601f016020809104026020016040519081016040528092919081815260200182805461165e90612d09565b80156116ab5780601f10611680576101008083540402835291602001916116ab565b820191906000526020600020905b81548152906001019060200180831161168e57829003601f168201915b5050505050611e08565b7f8a269f26b688e110e9cbd887d163dab35cae678fa353a0292de532c0cac1ecdc81856040516116e69291906133ba565b60405180910390a1505050505050565b60008061170283610b3a565b90508073ffffffffffffffffffffffffffffffffffffffff168473ffffffffffffffffffffffffffffffffffffffff161480611744575061174381856112c8565b5b8061178257508373ffffffffffffffffffffffffffffffffffffffff1661176a846107b7565b73ffffffffffffffffffffffffffffffffffffffff16145b91505092915050565b8273ffffffffffffffffffffffffffffffffffffffff166117ab82610b3a565b73ffffffffffffffffffffffffffffffffffffffff1614611801576040517f08c379a00000000000000000000000000000000000000000000000000000000081526004016117f890613455565b60405180910390fd5b600073ffffffffffffffffffffffffffffffffffffffff168273ffffffffffffffffffffffffffffffffffffffff161415611871576040517f08c379a0000000000000000000000000000000000000000000000000000000008152600401611868906134e7565b60405180910390fd5b61187c838383611e7c565b61188760008261149d565b6001600360008573ffffffffffffffffffffffffffffffffffffffff1673ffffffffffffffffffffffffffffffffffffffff16815260200190815260200160002060008282546118d79190613507565b925050819055506001600360008473ffffffffffffffffffffffffffffffffffffffff1673ffffffffffffffffffffffffffffffffffffffff168152602001908152602001600020600082825461192e91906130bc565b92505081905550816002600083815260200190815260200160002060006101000a81548173ffffffffffffffffffffffffffffffffffffffff021916908373ffffffffffffffffffffffffffffffffffffffff160217905550808273ffffffffffffffffffffffffffffffffffffffff168473ffffffffffffffffffffffffffffffffffffffff167fddf252ad1be2c89b69c2b068fc378daa952ba7f163c4a11628f55a4df523b3ef60405160405180910390a46119ed838383611e81565b505050565b6119fa611495565b73ffffffffffffffffffffffffffffffffffffffff16611a18610d9a565b73ffffffffffffffffffffffffffffffffffffffff1614611a6e576040517f08c379a0000000000000000000000000000000000000000000000000000000008152600401611a6590613587565b60405180910390fd5b565b6000600760009054906101000a900473ffffffffffffffffffffffffffffffffffffffff16905081600760006101000a81548173ffffffffffffffffffffffffffffffffffffffff021916908373ffffffffffffffffffffffffffffffffffffffff1602179055508173ffffffffffffffffffffffffffffffffffffffff168173ffffffffffffffffffffffffffffffffffffffff167f8be0079c531659141344cd1fd0a4f28419497f9722a3daafe3b4186f6b6457e060405160405180910390a35050565b8173ffffffffffffffffffffffffffffffffffffffff168373ffffffffffffffffffffffffffffffffffffffff161415611ba5576040517f08c379a0000000000000000000000000000000000000000000000000000000008152600401611b9c906135f3565b60405180910390fd5b80600560008573ffffffffffffffffffffffffffffffffffffffff1673ffffffffffffffffffffffffffffffffffffffff16815260200190815260200160002060008473ffffffffffffffffffffffffffffffffffffffff1673ffffffffffffffffffffffffffffffffffffffff16815260200190815260200160002060006101000a81548160ff0219169083151502179055508173ffffffffffffffffffffffffffffffffffffffff168373ffffffffffffffffffffffffffffffffffffffff167f17307eab39ab6107e8899845ad3d59bd9653f200f220920489ca2b5937696c3183604051611c96919061254f565b60405180910390a3505050565b611cae84848461178b565b611cba84848484611e86565b611cf9576040517f08c379a0000000000000000000000000000000000000000000000000000000008152600401611cf090613685565b60405180910390fd5b50505050565b606060405180602001604052806000815250905090565b6060611d218261144a565b6000611d2b611cff565b90506000815111611d4b5760405180602001604052806000815250611d76565b80611d558461201d565b604051602001611d669291906132a4565b6040516020818303038152906040525b915050919050565b60008073ffffffffffffffffffffffffffffffffffffffff166002600084815260200190815260200160002060009054906101000a900473ffffffffffffffffffffffffffffffffffffffff1673ffffffffffffffffffffffffffffffffffffffff1614159050919050565b611e0482826040518060200160405280600081525061217e565b5050565b611e1182611d7e565b611e50576040517f08c379a0000000000000000000000000000000000000000000000000000000008152600401611e4790613717565b60405180910390fd5b80600660008481526020019081526020016000209080519060200190611e779291906123f8565b505050565b505050565b505050565b6000611ea78473ffffffffffffffffffffffffffffffffffffffff166121d9565b15612010578373ffffffffffffffffffffffffffffffffffffffff1663150b7a02611ed0611495565b8786866040518563ffffffff1660e01b8152600401611ef2949392919061378c565b602060405180830381600087803b158015611f0c57600080fd5b505af1925050508015611f3d57506040513d601f19601f82011682018060405250810190611f3a91906137ed565b60015b611fc0573d8060008114611f6d576040519150601f19603f3d011682016040523d82523d6000602084013e611f72565b606091505b50600081511415611fb8576040517f08c379a0000000000000000000000000000000000000000000000000000000008152600401611faf90613685565b60405180910390fd5b805181602001fd5b63150b7a0260e01b7bffffffffffffffffffffffffffffffffffffffffffffffffffffffff1916817bffffffffffffffffffffffffffffffffffffffffffffffffffffffff191614915050612015565b600190505b949350505050565b60606000821415612065576040518060400160405280600181526020017f30000000000000000000000000000000000000000000000000000000000000008152509050612179565b600082905060005b6000821461209757808061208090613112565b915050600a82612090919061381a565b915061206d565b60008167ffffffffffffffff8111156120b3576120b261277f565b5b6040519080825280601f01601f1916602001820160405280156120e55781602001600182028036833780820191505090505b5090505b60008514612172576001826120fe9190613507565b9150600a8561210d9190613389565b603061211991906130bc565b60f81b81838151811061212f5761212e61305e565b5b60200101907effffffffffffffffffffffffffffffffffffffffffffffffffffffffffffff1916908160001a905350600a8561216b919061381a565b94506120e9565b8093505050505b919050565b61218883836121fc565b6121956000848484611e86565b6121d4576040517f08c379a00000000000000000000000000000000000000000000000000000000081526004016121cb90613685565b60405180910390fd5b505050565b6000808273ffffffffffffffffffffffffffffffffffffffff163b119050919050565b600073ffffffffffffffffffffffffffffffffffffffff168273ffffffffffffffffffffffffffffffffffffffff16141561226c576040517f08c379a000000000000000000000000000000000000000000000000000000000815260040161226390613897565b60405180910390fd5b61227581611d7e565b156122b5576040517f08c379a00000000000000000000000000000000000000000000000000000000081526004016122ac90613903565b60405180910390fd5b6122c160008383611e7c565b6001600360008473ffffffffffffffffffffffffffffffffffffffff1673ffffffffffffffffffffffffffffffffffffffff168152602001908152602001600020600082825461231191906130bc565b92505081905550816002600083815260200190815260200160002060006101000a81548173ffffffffffffffffffffffffffffffffffffffff021916908373ffffffffffffffffffffffffffffffffffffffff160217905550808273ffffffffffffffffffffffffffffffffffffffff16600073ffffffffffffffffffffffffffffffffffffffff167fddf252ad1be2c89b69c2b068fc378daa952ba7f163c4a11628f55a4df523b3ef60405160405180910390a46123d260008383611e81565b5050565b6040518060600160405280600390602082028036833780820191505090505090565b82805461240490612d09565b90600052602060002090601f016020900481019282612426576000855561246d565b82601f1061243f57805160ff191683800117855561246d565b8280016001018555821561246d579182015b8281111561246c578251825591602001919060010190612451565b5b50905061247a919061247e565b5090565b5b8082111561249757600081600090555060010161247f565b5090565b6000604051905090565b600080fd5b600080fd5b60007fffffffff0000000000000000000000000000000000000000000000000000000082169050919050565b6124e4816124af565b81146124ef57600080fd5b50565b600081359050612501816124db565b92915050565b60006020828403121561251d5761251c6124a5565b5b600061252b848285016124f2565b91505092915050565b60008115159050919050565b61254981612534565b82525050565b60006020820190506125646000830184612540565b92915050565b600081519050919050565b600082825260208201905092915050565b60005b838110156125a4578082015181840152602081019050612589565b838111156125b3576000848401525b50505050565b6000601f19601f8301169050919050565b60006125d58261256a565b6125df8185612575565b93506125ef818560208601612586565b6125f8816125b9565b840191505092915050565b6000602082019050818103600083015261261d81846125ca565b905092915050565b6000819050919050565b61263881612625565b811461264357600080fd5b50565b6000813590506126558161262f565b92915050565b600060208284031215612671576126706124a5565b5b600061267f84828501612646565b91505092915050565b600073ffffffffffffffffffffffffffffffffffffffff82169050919050565b60006126b382612688565b9050919050565b6126c3816126a8565b82525050565b60006020820190506126de60008301846126ba565b92915050565b6126ed816126a8565b81146126f857600080fd5b50565b60008135905061270a816126e4565b92915050565b60008060408385031215612727576127266124a5565b5b6000612735858286016126fb565b925050602061274685828601612646565b9150509250929050565b61275981612625565b82525050565b60006020820190506127746000830184612750565b92915050565b600080fd5b7f4e487b7100000000000000000000000000000000000000000000000000000000600052604160045260246000fd5b6127b7826125b9565b810181811067ffffffffffffffff821117156127d6576127d561277f565b5b80604052505050565b60006127e961249b565b90506127f582826127ae565b919050565b600067ffffffffffffffff8211156128155761281461277f565b5b602082029050602081019050919050565b600080fd5b600061283e612839846127fa565b6127df565b9050808382526020820190506020840283018581111561286157612860612826565b5b835b8181101561288a57806128768882612646565b845260208401935050602081019050612863565b5050509392505050565b600082601f8301126128a9576128a861277a565b5b81356128b984826020860161282b565b91505092915050565b600080604083850312156128d9576128d86124a5565b5b60006128e785828601612646565b925050602083013567ffffffffffffffff811115612908576129076124aa565b5b61291485828601612894565b9150509250929050565b600080600060608486031215612937576129366124a5565b5b6000612945868287016126fb565b9350506020612956868287016126fb565b925050604061296786828701612646565b9150509250925092565b600060039050919050565b600081905092915050565b6000819050919050565b61299a81612625565b82525050565b60006129ac8383612991565b60208301905092915050565b6000602082019050919050565b6129ce81612971565b6129d8818461297c565b92506129e382612987565b8060005b83811015612a145781516129fb87826129a0565b9650612a06836129b8565b9250506001810190506129e7565b505050505050565b6000606082019050612a3160008301846129c5565b92915050565b600060208284031215612a4d57612a4c6124a5565b5b6000612a5b848285016126fb565b91505092915050565b612a6d81612534565b8114612a7857600080fd5b50565b600081359050612a8a81612a64565b92915050565b60008060408385031215612aa757612aa66124a5565b5b6000612ab5858286016126fb565b9250506020612ac685828601612a7b565b9150509250929050565b7f4e487b7100000000000000000000000000000000000000000000000000000000600052602160045260246000fd5b60038110612b1057612b0f612ad0565b5b50565b6000819050612b2182612aff565b919050565b6000612b3182612b13565b9050919050565b612b4181612b26565b82525050565b6000602082019050612b5c6000830184612b38565b92915050565b600080fd5b600067ffffffffffffffff821115612b8257612b8161277f565b5b612b8b826125b9565b9050602081019050919050565b82818337600083830152505050565b6000612bba612bb584612b67565b6127df565b905082815260208101848484011115612bd657612bd5612b62565b5b612be1848285612b98565b509392505050565b600082601f830112612bfe57612bfd61277a565b5b8135612c0e848260208601612ba7565b91505092915050565b60008060008060808587031215612c3157612c306124a5565b5b6000612c3f878288016126fb565b9450506020612c50878288016126fb565b9350506040612c6187828801612646565b925050606085013567ffffffffffffffff811115612c8257612c816124aa565b5b612c8e87828801612be9565b91505092959194509250565b60008060408385031215612cb157612cb06124a5565b5b6000612cbf858286016126fb565b9250506020612cd0858286016126fb565b9150509250929050565b7f4e487b7100000000000000000000000000000000000000000000000000000000600052602260045260246000fd5b60006002820490506001821680612d2157607f821691505b60208210811415612d3557612d34612cda565b5b50919050565b7f4552433732313a20617070726f76616c20746f2063757272656e74206f776e6560008201527f7200000000000000000000000000000000000000000000000000000000000000602082015250565b6000612d97602183612575565b9150612da282612d3b565b604082019050919050565b60006020820190508181036000830152612dc681612d8a565b9050919050565b7f4552433732313a20617070726f76652063616c6c6572206973206e6f7420746f60008201527f6b656e206f776e6572206e6f7220617070726f76656420666f7220616c6c0000602082015250565b6000612e29603e83612575565b9150612e3482612dcd565b604082019050919050565b60006020820190508181036000830152612e5881612e1c565b9050919050565b6000604082019050612e7460008301856126ba565b612e8160208301846126ba565b9392505050565b7f4552433732313a2063616c6c6572206973206e6f7420746f6b656e206f776e6560008201527f72206e6f7220617070726f766564000000000000000000000000000000000000602082015250565b6000612ee4602e83612575565b9150612eef82612e88565b604082019050919050565b60006020820190508181036000830152612f1381612ed7565b9050919050565b600081905092915050565b50565b6000612f35600083612f1a565b9150612f4082612f25565b600082019050919050565b6000612f5682612f28565b9150819050919050565b7f4552433732313a20696e76616c696420746f6b656e2049440000000000000000600082015250565b6000612f96601883612575565b9150612fa182612f60565b602082019050919050565b60006020820190508181036000830152612fc581612f89565b9050919050565b7f4552433732313a2061646472657373207a65726f206973206e6f74206120766160008201527f6c6964206f776e65720000000000000000000000000000000000000000000000602082015250565b6000613028602983612575565b915061303382612fcc565b604082019050919050565b600060208201905081810360008301526130578161301b565b9050919050565b7f4e487b7100000000000000000000000000000000000000000000000000000000600052603260045260246000fd5b7f4e487b7100000000000000000000000000000000000000000000000000000000600052601160045260246000fd5b60006130c782612625565b91506130d283612625565b9250827fffffffffffffffffffffffffffffffffffffffffffffffffffffffffffffffff038211156131075761310661308d565b5b828201905092915050565b600061311d82612625565b91507fffffffffffffffffffffffffffffffffffffffffffffffffffffffffffffffff8214156131505761314f61308d565b5b600182019050919050565b6000819050919050565b61316e8161315b565b82525050565b600067ffffffffffffffff82169050919050565b61319181613174565b82525050565b600061ffff82169050919050565b6131ae81613197565b82525050565b600063ffffffff82169050919050565b6131cd816131b4565b82525050565b600060a0820190506131e86000830188613165565b6131f56020830187613188565b61320260408301866131a5565b61320f60608301856131c4565b61321c60808301846131c4565b9695505050505050565b6000815190506132358161262f565b92915050565b600060208284031215613251576132506124a5565b5b600061325f84828501613226565b91505092915050565b600081905092915050565b600061327e8261256a565b6132888185613268565b9350613298818560208601612586565b80840191505092915050565b60006132b08285613273565b91506132bc8284613273565b91508190509392505050565b7f4f776e61626c653a206e6577206f776e657220697320746865207a65726f206160008201527f6464726573730000000000000000000000000000000000000000000000000000602082015250565b6000613324602683612575565b915061332f826132c8565b604082019050919050565b6000602082019050818103600083015261335381613317565b9050919050565b7f4e487b7100000000000000000000000000000000000000000000000000000000600052601260045260246000fd5b600061339482612625565b915061339f83612625565b9250826133af576133ae61335a565b5b828206905092915050565b60006040820190506133cf6000830185612b38565b6133dc60208301846126ba565b9392505050565b7f4552433732313a207472616e736665722066726f6d20696e636f72726563742060008201527f6f776e6572000000000000000000000000000000000000000000000000000000602082015250565b600061343f602583612575565b915061344a826133e3565b604082019050919050565b6000602082019050818103600083015261346e81613432565b9050919050565b7f4552433732313a207472616e7366657220746f20746865207a65726f2061646460008201527f7265737300000000000000000000000000000000000000000000000000000000602082015250565b60006134d1602483612575565b91506134dc82613475565b604082019050919050565b60006020820190508181036000830152613500816134c4565b9050919050565b600061351282612625565b915061351d83612625565b9250828210156135305761352f61308d565b5b828203905092915050565b7f4f776e61626c653a2063616c6c6572206973206e6f7420746865206f776e6572600082015250565b6000613571602083612575565b915061357c8261353b565b602082019050919050565b600060208201905081810360008301526135a081613564565b9050919050565b7f4552433732313a20617070726f766520746f2063616c6c657200000000000000600082015250565b60006135dd601983612575565b91506135e8826135a7565b602082019050919050565b6000602082019050818103600083015261360c816135d0565b9050919050565b7f4552433732313a207472616e7366657220746f206e6f6e20455243373231526560008201527f63656976657220696d706c656d656e7465720000000000000000000000000000602082015250565b600061366f603283612575565b915061367a82613613565b604082019050919050565b6000602082019050818103600083015261369e81613662565b9050919050565b7f45524337323155524953746f726167653a2055524920736574206f66206e6f6e60008201527f6578697374656e7420746f6b656e000000000000000000000000000000000000602082015250565b6000613701602e83612575565b915061370c826136a5565b604082019050919050565b60006020820190508181036000830152613730816136f4565b9050919050565b600081519050919050565b600082825260208201905092915050565b600061375e82613737565b6137688185613742565b9350613778818560208601612586565b613781816125b9565b840191505092915050565b60006080820190506137a160008301876126ba565b6137ae60208301866126ba565b6137bb6040830185612750565b81810360608301526137cd8184613753565b905095945050505050565b6000815190506137e7816124db565b92915050565b600060208284031215613803576138026124a5565b5b6000613811848285016137d8565b91505092915050565b600061382582612625565b915061383083612625565b9250826138405761383f61335a565b5b828204905092915050565b7f4552433732313a206d696e7420746f20746865207a65726f2061646472657373600082015250565b6000613881602083612575565b915061388c8261384b565b602082019050919050565b600060208201905081810360008301526138b081613874565b9050919050565b7f4552433732313a20746f6b656e20616c7265616479206d696e74656400000000600082015250565b60006138ed601c83612575565b91506138f8826138b7565b602082019050919050565b6000602082019050818103600083015261391c816138e0565b905091905056fea26469706673582212209f263fa0892a13cb95ec5aaa5a7c4cf89f6f6221b77857d5990e323844343e6d64736f6c63430008080033",
  "devdoc": {
    "kind": "dev",
    "methods": {
      "approve(address,uint256)": {
        "details": "See {IERC721-approve}."
      },
      "balanceOf(address)": {
        "details": "See {IERC721-balanceOf}."
      },
      "getApproved(uint256)": {
        "details": "See {IERC721-getApproved}."
      },
      "isApprovedForAll(address,address)": {
        "details": "See {IERC721-isApprovedForAll}."
      },
      "name()": {
        "details": "See {IERC721Metadata-name}."
      },
      "owner()": {
        "details": "Returns the address of the current owner."
      },
      "ownerOf(uint256)": {
        "details": "See {IERC721-ownerOf}."
      },
      "renounceOwnership()": {
        "details": "Leaves the contract without owner. It will not be possible to call `onlyOwner` functions anymore. Can only be called by the current owner. NOTE: Renouncing ownership will leave the contract without an owner, thereby removing any functionality that is only available to the owner."
      },
      "safeTransferFrom(address,address,uint256)": {
        "details": "See {IERC721-safeTransferFrom}."
      },
      "safeTransferFrom(address,address,uint256,bytes)": {
        "details": "See {IERC721-safeTransferFrom}."
      },
      "setApprovalForAll(address,bool)": {
        "details": "See {IERC721-setApprovalForAll}."
      },
      "supportsInterface(bytes4)": {
        "details": "See {IERC165-supportsInterface}."
      },
      "symbol()": {
        "details": "See {IERC721Metadata-symbol}."
      },
      "tokenURI(uint256)": {
        "details": "See {IERC721Metadata-tokenURI}."
      },
      "transferFrom(address,address,uint256)": {
        "details": "See {IERC721-transferFrom}."
      },
      "transferOwnership(address)": {
        "details": "Transfers ownership of the contract to a new account (`newOwner`). Can only be called by the current owner."
      }
    },
    "version": 1
  },
  "userdoc": {
    "kind": "user",
    "methods": {},
    "version": 1
  },
  "storageLayout": {
    "storage": [
      {
        "astId": 285,
        "contract": "contracts/RandomIpfsNft.sol:RandomIpfsNft",
        "label": "_name",
        "offset": 0,
        "slot": "0",
        "type": "t_string_storage"
      },
      {
        "astId": 287,
        "contract": "contracts/RandomIpfsNft.sol:RandomIpfsNft",
        "label": "_symbol",
        "offset": 0,
        "slot": "1",
        "type": "t_string_storage"
      },
      {
        "astId": 291,
        "contract": "contracts/RandomIpfsNft.sol:RandomIpfsNft",
        "label": "_owners",
        "offset": 0,
        "slot": "2",
        "type": "t_mapping(t_uint256,t_address)"
      },
      {
        "astId": 295,
        "contract": "contracts/RandomIpfsNft.sol:RandomIpfsNft",
        "label": "_balances",
        "offset": 0,
        "slot": "3",
        "type": "t_mapping(t_address,t_uint256)"
      },
      {
        "astId": 299,
        "contract": "contracts/RandomIpfsNft.sol:RandomIpfsNft",
        "label": "_tokenApprovals",
        "offset": 0,
        "slot": "4",
        "type": "t_mapping(t_uint256,t_address)"
      },
      {
        "astId": 305,
        "contract": "contracts/RandomIpfsNft.sol:RandomIpfsNft",
        "label": "_operatorApprovals",
        "offset": 0,
        "slot": "5",
        "type": "t_mapping(t_address,t_mapping(t_address,t_bool))"
      },
      {
        "astId": 1273,
        "contract": "contracts/RandomIpfsNft.sol:RandomIpfsNft",
        "label": "_tokenURIs",
        "offset": 0,
        "slot": "6",
        "type": "t_mapping(t_uint256,t_string_storage)"
      },
      {
        "astId": 154,
        "contract": "contracts/RandomIpfsNft.sol:RandomIpfsNft",
        "label": "_owner",
        "offset": 0,
        "slot": "7",
        "type": "t_address"
      },
      {
        "astId": 2032,
        "contract": "contracts/RandomIpfsNft.sol:RandomIpfsNft",
        "label": "s_requestIdToSender",
        "offset": 0,
        "slot": "8",
        "type": "t_mapping(t_uint256,t_address)"
      },
      {
        "astId": 2034,
        "contract": "contracts/RandomIpfsNft.sol:RandomIpfsNft",
        "label": "s_tokenCounter",
        "offset": 0,
        "slot": "9",
        "type": "t_uint256"
      },
      {
        "astId": 2040,
        "contract": "contracts/RandomIpfsNft.sol:RandomIpfsNft",
        "label": "s_dogTokenUris",
        "offset": 0,
        "slot": "10",
        "type": "t_array(t_string_storage)dyn_storage"
      }
    ],
    "types": {
      "t_address": {
        "encoding": "inplace",
        "label": "address",
        "numberOfBytes": "20"
      },
      "t_array(t_string_storage)dyn_storage": {
        "base": "t_string_storage",
        "encoding": "dynamic_array",
        "label": "string[]",
        "numberOfBytes": "32"
      },
      "t_bool": {
        "encoding": "inplace",
        "label": "bool",
        "numberOfBytes": "1"
      },
      "t_mapping(t_address,t_bool)": {
        "encoding": "mapping",
        "key": "t_address",
        "label": "mapping(address => bool)",
        "numberOfBytes": "32",
        "value": "t_bool"
      },
      "t_mapping(t_address,t_mapping(t_address,t_bool))": {
        "encoding": "mapping",
        "key": "t_address",
        "label": "mapping(address => mapping(address => bool))",
        "numberOfBytes": "32",
        "value": "t_mapping(t_address,t_bool)"
      },
      "t_mapping(t_address,t_uint256)": {
        "encoding": "mapping",
        "key": "t_address",
        "label": "mapping(address => uint256)",
        "numberOfBytes": "32",
        "value": "t_uint256"
      },
      "t_mapping(t_uint256,t_address)": {
        "encoding": "mapping",
        "key": "t_uint256",
        "label": "mapping(uint256 => address)",
        "numberOfBytes": "32",
        "value": "t_address"
      },
      "t_mapping(t_uint256,t_string_storage)": {
        "encoding": "mapping",
        "key": "t_uint256",
        "label": "mapping(uint256 => string)",
        "numberOfBytes": "32",
        "value": "t_string_storage"
      },
      "t_string_storage": {
        "encoding": "bytes",
        "label": "string",
        "numberOfBytes": "32"
      },
      "t_uint256": {
        "encoding": "inplace",
        "label": "uint256",
        "numberOfBytes": "32"
      }
    }
  }
}